:020000040800F2
:10000000380A0020450100082F3B00089D2B0008FE
:100010002D3B00085F0E0008254500080000000089
:10002000000000000000000000000000CF410008B8
:10003000F50F000800000000CD410008D141000884
:100040005F0100085F0100085F0100085F01000810
:100050005F0100085F0100085F0100085F01000800
:100060005F0100085F0100085F0100085F010008F0
:100070005F0100085F0100085F0100085F010008E0
:100080005F0100085F0100085F0100085F010008D0
:100090005F0100085F0100085F0100085F010008C0
:1000A0005F0100085F0100085F0100085F010008B0
:1000B0005F0100085F0100085F0100085F010008A0
:1000C0005F0100085F0100085F0100085F01000890
:1000D0005F0100085F010008194500085F01000882
:1000E0005F0100085F0100085F0100085F01000870
:1000F0005F0100085F0100085F0100085F01000860
:100100005F0100085F0100085F0100085F0100084F
:100110005F0100085F0100085F0100083542000828
:100120005F0100085F0100085F0100085F0100082F
:10013000DFF80CD000F0E0FD004800476D520008E9
:10014000380A00200648804706480047FEE7FEE7D9
:10015000FEE7FEE7FEE7FEE7FEE7FEE7FEE7FEE777
:100160003342000831010008202A04DB203A21FA3A
:1001700002F00021704721FA02F3D040C2F12002C0
:100180009140084319467047A0F14101192900D850
:100190002030704740EA01039B0703D009E008C9FB
:1001A000121F08C0042AFAD203E011F8013B00F83C
:1001B000013B521EF9D27047D2B201E000F8012B88
:1001C000491EFBD270470022F6E710B513460A46D7
:1001D00004461946FFF7F0FF204610BD30B505462E
:1001E0002A460B4612F8010B13F8014B08B1A04246
:1001F000F8D01CB1002802D06D1CF1E7284630BDB4
:10020000CAB2401E10F8011F8A4202D00029F9D15B
:1002100000207047421C10F8011B0029FBD1801AF6
:10022000704710B5002200E0521C835C8C5CA34236
:1002300001D1002BF8D1D8B2E1B2401A10BD10B5EF
:10024000044600E0401C0378002BFBD100E0401C7A
:10025000521E04D311F8013B0370002BF7D100218B
:100260000170204610BD30B505460020034600E071
:100270005B1C934205D2EC5CC85C201A01D1002CB7
:10028000F6D130BD2DE9FF4F087881B09946FF289F
:1002900005D0491C2D2804D00024002308E00023A9
:1002A0000BE00124F9E703EB830300EB4303491C54
:1002B0000878FF28F7D104B15B4200200090147841
:1002C00001462D2C01D02B2C04D1521C2D2C12D0E8
:1002D0000024009400251678FF2E0ED00A24A0FBDF
:1002E00004C801FB0481002700FB0711521C16EB18
:1002F0000C006941EFE70124EBE7994450EA010261
:100300000ED00024AA4D2646DFF8A88200F0B3FCE8
:1003100082468B46B9F1000009DAC9F100071BE0FB
:1003200001980021C0E9001105B0BDE8F08F074633
:1003300012E0F80707D022462B463046414600F02F
:10034000F1F90646884622462B461046194600F02B
:10035000E9F904460D467F10002FEAD1B9F1000FEC
:10036000324643465046594602DA00F04DFA01E063
:1003700000F0D8F9009A0AB181F00041019AC2E96F
:100380000001D1E72DE9FF4F1F468DB0D7E90146A7
:100390004FF0FF382E2045464FF000090B90B96909
:1003A0006D1C0E988847396A824688470028F6D126
:1003B000BAF1FF3F0AD024F4D064002E11DDBAF167
:1003C0002B0F08D0BAF12D0F0BD102E0404611B02F
:1003D000ABE744F48064B9696D1C0E988847824687
:1003E000761E6946600501D52D2000E02B208DF892
:1003F000000001F1010B0DF1200809E0B9696D1C45
:100400000E98884782460F9844F40074761E056063
:10041000002E02DDBAF1300FF0D00B998A453ED1A3
:1004200044F0800406E00F99681CA9F1010944F426
:1004300000740860B9696D1C761E0E988847824664
:100440003028F0D02BE00B998A4505D1200603D443
:1004500044F08004761E18E0504604F0C1F908B359
:100460000DF11301761E44F400748B4508D2AAF1F5
:1004700030000BF8010B200607D5A9F1010003E0BD
:10048000200602D409F101008146A00502D50F998A
:10049000681C0860B9696D1C0E9888478246002E5A
:1004A000D1DC53E0002E51DDBAF1650F02D0BAF174
:1004B000450F4BD1A00549D5B9696D1C24F4407492
:1004C000761E0E9888478246002E0CDD2B2804D01D
:1004D000BAF12D0F07D144F48074B9696D1C0E98E0
:1004E00088478246761EE00501D52D2100E02B21AC
:1004F00008F8011BCDF82C8021E00DF12901761EB2
:1005000044F4007488450CD2AAF1300010F0FF00CA
:1005100088F8000002D10B99884509D908F1010833
:1005200006E0E00501D5244801E042F20F70814663
:10053000B9696D1C0E98884782460F980560002E99
:1005400004DD504604F04CF90028D6D1F9690E9824
:100550008847FF208BF8000088F8000000200690F4
:1005600007904B466A4608A906A8FFF78BFEA00530
:1005700002D46FF001002AE714F0240F0AD0E0073C
:1005800014D1DDE906123868031D3B600068C0E93C
:1005900000120BE0DDE9060100F091FB0146E007E7
:1005A00004D13868021D3A600068016028460EE7F1
:1005B000000024400000F03FF1D8FFFF70B5064670
:1005C00003F0F2FF046805460A220021304600F0DD
:1005D000BDFA2C6070BD2DE9FE4F804681EA030014
:1005E000C00F0C46009021F0004123F00045B8EB0D
:1005F0000200A94105D24046214690461C460B46C2
:10060000024623F00040104347D0270DC7F30A00ED
:10061000C3F30A510290401A019040286BDAC3F3E9
:10062000130040F4801B0098924620B10023D2EBC7
:10063000030A63EB0B0B01985946C0F14002504688
:1006400000F0F5F906460D4650465946019A00F06D
:10065000FDF910EB08006141002487EA115284EA99
:10066000E7731A4340D0009A62B3019A012A4FEA15
:10067000075215DC001B61EB02014FF0004202EA59
:100680000752CDE90042001C41F5801132462B464D
:1006900000F0A3FA03B0BDE8F08F40462146F9E729
:1006A000001B61EB0201001C41F5801300185B4147
:1006B0002018A2F5001747EB030140EAD570B619E0
:1006C0006D4111E06D084FEA360645EAC0754FEA04
:1006D0000752001B61EB0201001C41F58011490823
:1006E0004FEA30000019514132462B4603B0BDE8B5
:1006F000F04F00F063BA0098012240000023D0EBD5
:10070000020263EBE073009821464FEAE074B8EB15
:10071000000061EB0401E9E783F000435BE781F04F
:10072000004158E72DE9FE4F81EA030404F000443C
:1007300021F0004100944FF0000B23F0004350EAF9
:1007400001045ED052EA03045BD0C3F30A54C1F340
:100750000A552C44A4F2F3340194A0FB0254C1F3D3
:10076000130141F48011C3F3130343F4801301FB1D
:10077000024400FB034E840A970A44EA815447EA84
:100780008357A4FB076802958D0A05FB07854FEA8E
:10079000932C04FB0C542705029D4FEA065847EAA8
:1007A0001637B5EB08056EEB070C870E920E47EA7D
:1007B000811742EA8312A7FB0201B6EB0B0164EB3F
:1007C00000042B0D43EA0C335E1844EB1C50DA4650
:1007D0005146E7FB0201C5F313044FEA0B3343EA2A
:1007E00014534FEA0432019C43EA0603A4F10C04BB
:1007F0000294009CCDE900B400F0EFF903B0BDE82D
:10080000F08F00200146F9E72DE9F04D81EA03045D
:1008100004F0004B21F0004514464FF0000A23F08D
:10082000004150EA050220D054EA01021DD0C5F370
:100830000A570246C5F31303C1F31300C1F30A5666
:1008400040F4801543F48013A7EB0608101BD6462E
:1008500008F2FD3873EB050002D308F1010801E04E
:1008600092185B41B8F1000F03DA00200146BDE8A1
:10087000F08D00204FF48011064684460EE0171BD1
:1008800073EB050705D3121B63EB050306434CEA24
:10089000010C49084FEA300092185B4150EA010709
:1008A000EDD152EA030012D082EA040083EA050186
:1008B000084305D0101BAB4106D20122002306E0FD
:1008C00000224FF0004302E06FF0010253101AEBD8
:1008D00006004CEB085110EB0A0041EB0B01BDE8A0
:1008E000F04D00F06BB90EB540F23341029100219A
:1008F000CDE900110A460B4600F06FF903B000BDC8
:1009000070B5C1F30A5201F000450024C1F3130190
:1009100040F2FF3341F480119A4201DA002070BDA9
:1009200040F233439A42A2F2334203DC5242FFF7D1
:100930001BFC00E090402C43F1D0404270BD000011
:1009400030B5041E71F1000404DB4FF00044404256
:1009500064EB0101141E73F1000405DB1C464FF02B
:100960000043524263EB04038B4208BF824230BD16
:1009700030B5041E71F1000404DB4FF00044404226
:1009800064EB0101141E73F1000405DB1C464FF0FB
:100990000043524263EB0403994208BF904230BDCA
:1009A00030B50B46014600202022012409E021FA3F
:1009B00002F59D4205D303FA02F5491B04FA02F53C
:1009C0002844151EA2F10102F1DC30BD2DE9F05FD3
:1009D0000546002092469B468846064681464024AE
:1009E0001BE02846414647462246FFF7BDFB5346DB
:1009F0005A46C01A914110D311461846224600F0BB
:100A000016F82D1A67EB01084F46224601200021F7
:100A100000F00DF817EB00094E41201EA4F101046F
:100A2000DFDC484631462A464346BDE8F09F202A8F
:100A300004DB203A00FA02F1002070479140C2F135
:100A4000200320FA03F3194390407047202A06DB65
:100A5000CB17203A41FA02F043EAE07306E041FA8C
:100A600002F3D040C2F1200291400843194670477A
:100A7000426842B1016811F8013B23B1521EC0E93E
:100A80000012184670470121C160881E70474268F5
:100A90005AB1C368016843B983688B4205D0491EC7
:100AA000521CC0E90012002070474FF0FF30704721
:100AB0000FB4002300B589B00CA900910B996FF019
:100AC0000042CB601E4B06931E4B07930423CDE9D7
:100AD00001321D4A089202466B460020FFF752FC85
:100AE00009B05DF814FB70B586B006464FF0FF30D4
:100AF0000091CDE90101002015460C4604903246D4
:100B0000694604A8FFF7D4FF03460498211825B1CD
:100B100008B10A4600E022462A6000280DD0002BCA
:100B200002DD0098884208D0081B0094CDE901043A
:100B30003246694604A8FFF7BBFF06B070BD00004F
:100B4000710A00088F0A0008250D00082DE9F047FA
:100B500091460F4680460446002614F8015B2DB1ED
:100B600000F0DCF80068405DC007F6D12B2D02D004
:100B70002D2D18D0641E4A463946204600F0DBF879
:100B800027B13968A14201D1C7F8008071054FF043
:100B900002040BD54042002803DD03F005FD04608C
:100BA000A007BDE8F08746F48066E4E70028F8DA9D
:100BB00003F0FAFC04606FF00040F2E710B5141E79
:100BC00073F1000408DA401C41F1000192185B4106
:100BD0001A4301D120F0010010BD2DE9F04D9246DD
:100BE0009B4611B1B1FA81F202E0B0FA80F22032F4
:100BF0009046FFF71CFF04460F4640EA0A0041EA10
:100C00000B0153465A46084313D0114653EA0100DC
:100C100019D0C8F140025046FFF7A6FA05460E4625
:100C2000504659464246FFF702FF084305D00120CF
:100C300004E020463946BDE8F08D0020054346EA31
:100C4000E0762C4337430A986305E40AA0EB0800DA
:100C50000022FD0A44EA47540A3002D5002001462A
:100C6000E9E7010510196941DDE908450019694105
:100C7000BDE8F04DA2E70EB540F2334202920022E9
:100C8000CDE900221346FFF7A8FF03B000BDC1F372
:100C90000A52C1F3130140F2FF3341F480119A422A
:100CA00002DA00200146704740F233439A42A2F232
:100CB000334202DC5242FFF757BAFFF7B8BE01F0E9
:100CC000004330B421F0004150EA010206D00A0D81
:100CD000A2F56072C1F31301002A02DC30BC0020CF
:100CE0007047440F44EAC104C100E01830BC00EB77
:100CF000C25000F06FB80000064C074D06E0E068F7
:100D000040F0010394E8070098471034AC42F6D352
:100D1000FFF712FA44730008647300080048704734
:100D20003473000810B50446FFF7F8FF0068005D53
:100D300000F0010010BD2DE9F05F82460078002729
:100D400015468B460AF10104B946302801D09DB101
:100D500013E014F8010B0127782803D0582801D09C
:100D600045B10AE00DB1102D07D10027102514F868
:100D7000010B02E0082500E00A250026B0460EE03F
:100D800005FB080005FB06F1012701EB10461FFAE1
:100D900080F8B6F5803F00D3B94614F8010B294618
:100DA00000F04FF80028EBDABBF1000F05D00FB1CF
:100DB000641E00E05446CBF80040B9F1000F06D0A5
:100DC00003F0F2FB02210160C81EBDE8F09F48EA73
:100DD0000640FAE70029A8BF7047401C490008BF39
:100DE00020F00100704710B4B0FA80FC00FA0CF05B
:100DF00050EA010404BF10BC704749B1CCF1200493
:100E000021FA04F411FA0CF118BF0121214308431F
:100E1000A3EB0C01CB1D4FEA00614FEA102042BF4B
:100E2000002010BC704700EBC35010440029A4BF41
:100E300010BC7047401C490008BF20F0010010BCE6
:100E400070473A2800D2303820F02002412A01D3DE
:100E5000A2F13700884201D34FF0FF307047FEE720
:100E600030B585B0002000900190029003901148A9
:100E7000816941F4807181618069012200F4807090
:100E80000D4DD40204902146284600F0CCFC0121EF
:100E90000320CDE90210CDE900416946284600F063
:100EA000C1FB05B021462846BDE83040012200F0D4
:100EB000BABC000000100240002001401FB54FF4F2
:100EC00000600090012001900320039069460248D1
:100ED00000F0A8FB1FBD0000002001402DE9F041FB
:100EE0000025174E2C464FF400674FF00108394695
:100EF000304600F093FC0028F9D0282000F074FB65
:100F00003946304600F08AFC01280BD0C4F10701B5
:100F100008FA01F08543641CE4B2082CE7D32846A4
:100F2000BDE8F0813946304600F078FC0128F9D060
:100F3000C4F1070108FA01F0C0B20543EBE7000075
:100F4000002001407FB50446FFF7B8FF284E4FF45C
:100F5000006500222946304600F065FC122000F0B2
:100F600039FB01222946304600F05DFC1E2000F0CE
:100F70003BFB0020019002900390694600953046AB
:100F800000F050FB2946304600F048FC70BB294673
:100F9000304600F043FC0028F9D02946304600F0E6
:100FA0003DFC0128F9D0FFF799FF2070FFF796FF6D
:100FB0006070FFF793FFA070FFF790FFE070FFF7FE
:100FC0008DFF2071FFF77AFF01222946304600F09D
:100FD0002AFC20786178E2780844A178114408441A
:100FE0002179884202D1002004B070BD0120FBE7C6
:100FF000002001407047000001B5034800990160DE
:1010000001680029FCD108BD2400002010B5802112
:101010000348FFF7D8F803490020488010BD0000BE
:10102000340300201C00002010B5044600F0BEF977
:1010300058B90AA10B48FFF7D1F830B13A21FFF7B0
:10104000DFF8002800D0401C10BD052000F0B0FAE9
:101050002046641EA4B2E9D210BD00004950442CC1
:10106000000000003403002010B5384C002240215D
:10107000204600F0D8FBFA2000F09AFA0122402125
:10108000204600F0D0FB4FF4FA7000F091FAFFF721
:10109000BDFF2FA003F054FA02E0FA2000F088FA16
:1010A0002DA12EA000F0E0F80028F6D12DA003F02D
:1010B00047FA29A12EA000F0D7F8FA2000F078FA1C
:1010C0002EA003F03DFA02E0FA2000F071FA22A10E
:1010D0002DA000F0C9F80028F6D12FA003F030FAB7
:1010E00002E0FA2000F064FA1BA12FA000F0BCF887
:1010F0000028F6D130A003F023FA02E0FA2000F035
:1011000057FA30A131A000F0AFF80028F6D139A08D
:1011100003F016FA02E0FA2000F04AFA0EA138A015
:1011200000F0A2F80028F6D139A003F009FA02E095
:10113000FA2000F03DFA3AA13BA000F095F8002813
:10114000F6D1BDE8104042A003F0FAB90018014002
:10115000302E2041540D0A004F4B000041540D0A1F
:1011600000000000312E205253540D0A00000000F0
:1011700041542B5253540D0A00000000322E2043DC
:10118000574D4F44450D0A0041542B43574D4F4492
:10119000453D310D0A000000332E2041542B4357AA
:1011A000444843500D0A000041542B4357444843E0
:1011B000503D312C310D0A00342E2043574A415006
:1011C0000D0A0000474F54204950000041542B4362
:1011D000574A41503D2254502D4C494E4B5F322EC0
:1011E0003447222C2268727374656B522644220D98
:1011F0000A000000352E204349504D55580D0A0075
:1012000041542B4349504D55583D300D0A000000C4
:10121000362E2043495053544152540D0A000000C9
:10122000434F4E4E4543540041542B434950535471
:101230004152543D22544350222C2233392E393806
:101240002E39322E32222C313838330D0A0000006C
:10125000372E204553503832363620496E69742077
:101260004F4B0D0A000000002DE9F041A0B0884668
:101270000646C825FEF7CEFF87B2262222490FA8D0
:10128000FEF788FF204CE08CADF86200A06A199050
:10129000A08DADF86800E08DADF86A00206B1B9062
:1012A000092204F134011CA8FEF774FF94F83D00F4
:1012B0008DF8790094F83E008DF87A00206C1F902C
:1012C000342213A96846CDE90D67FEF763FF0FAC22
:1012D00094E80F0003F027F911E000BF00F066F872
:1012E00050B941460948FEF779FF28B1FFF78EFE55
:1012F000002020B0BDE8F0810A2000F059F96D1EF1
:10130000EDB2EBD20120F4E7F0020020340300201C
:1013100070B5A8B00D460646FFF778FE2A461DA117
:1013200020A803F01DF91FA120A8FFF79DFF0028AA
:101330002ED126221C490FA8FEF72CFF1A4CE08C58
:10134000ADF86200A06A1990A08DADF86800E08D3C
:10135000ADF86A00206B1B90092204F134011CA82F
:10136000FEF718FF94F83D008DF8790094F83E00E0
:101370008DF87A00206C1F90CDE90D65342213A9F9
:101380006846FEF707FF0FAC94E80F0003F0CBF8B8
:1013900028B070BD41542B43495053454E443D2520
:1013A000640D0A003E000000F0020020064841885B
:1013B00031B18288914205D10021418008467047B1
:1013C000012070478180FBE71C00002072B6FEE719
:1013D0003EB50020019020208DF808004FF6FF74E4
:1013E000012302AA46211248009400F00DFC50B9D6
:1013F000782000F0DDF801AA022346210C48009471
:1014000000F0E0FA08B100203EBD9DF8040004EAB7
:1014100000219DF805000843FFF765FA4FF03332CD
:10142000044BFFF7F1F9FFF76BFA80B23EBD000005
:10143000C80100203333F33F10B590F8211000228B
:10144000022905D00421816380F82020012010BDED
:1014500001680B6823F00E030B6001680B6823F032
:1014600001030B6090F84030C46B012101FA03F3D3
:10147000636080F8211080F82020104610BD000025
:101480002DE9F05F90F821100024022903D00421F7
:101490008163012485E001680A6822F00E020A6077
:1014A00001680A6822F001020A603F4E3E4FB21501
:1014B000DFF8F4C0DFF8F090DFF8ECA0DFF8E8B078
:1014C000DFF8E4E00168783F13011502ACF1640C29
:1014D000A9F15009AAF13C0AABF1280BAEF1140EA8
:1014E0004FF48018B14227D9B9420ED0614512D0CD
:1014F00049451DD0514518D0594518D0714501D1E5
:10150000424615E0294EB14201D1012210E0274E9A
:101510001436B14201D110220AE0244E2836B142DD
:1015200006D0224A3C32914201D11A4600E02A46B6
:101530001E49091F0A602BE0B94213D0614517D03C
:10154000494522D051451DD059451DD0714501D185
:1015500042461AE0B14202D14FF0807215E0134EBC
:10156000B14201D1012210E0104E1436B14201D136
:1015700010220AE00D4E2836B14206D00B4A3C320A
:10158000914201D11A4600E02A46074980394A6053
:10159000012180F82110002180F82010416B01B159
:1015A00088472046BDE8F09F8000024008040240C2
:1015B00070B5044600F03CF90546601C02D00448B2
:1015C0000078044400F034F9401BA042FAD370BD07
:1015D0000C00002000EB4001C1EBC0104FF6FF7182
:1015E00001EAC000AFF300800D4900220B685A6287
:1015F0000A68136843F00103136009684A6A82426B
:10160000FCD3086A41F21112104207D1086A921005
:10161000104203D1086820F0010008607047000004
:101620001C0200202DE9F84FDFF8C891002409F1D1
:10163000040A0AF1040B23460F270BF1040ED1E034
:101640000125A54006EA0502AA4276D1DFF8A8C125
:101650004E68A6EB0C0866452BD00DDC032E34D06B
:1016600005DC36B3012E19D0022E2FD11BE0112E2E
:1016700016D0122E2AD119E0B8F5881F19D006DC31
:10168000B8F5803F15D0B8F5801F1FD111E0B8F52F
:10169000001F0ED0B8F5041F18D10AE0CB6815E082
:1016A000CB681B1D12E0CB6808330FE0CB680C330E
:1016B0000CE08B682BB1012B4FF0080303D0456180
:1016C00004E0042302E0056100E00023FF2A01D8C2
:1016D000064601E000F104064FEA840501D9A5F1B0
:1016E0002005D6F8008007FA05FC28EA0C0803FA62
:1016F00005F548EA0508C6F800804D68ED0070D58C
:101700003E4DAE6946F00106AE61AD6924F00306B8
:1017100005F0010500953A4D06EB050CDCF8085084
:10172000A607360F07FA06F825EA0805DFF8D48081
:10173000404503D14FF0000825E052E0DFF8C880B3
:10174000404502D14FF001081DE0DFF8C080404560
:1017500002D14FF0020816E0DFF8B480404502D114
:101760004FF003080FE0DFF8AC80404502D14FF0A6
:10177000040808E0DFF8A080404502D14FF00508DA
:1017800001E04FF0060808FA06F848EA0508CCF828
:1017900008804D68D9F80060ED034D4601D5164329
:1017A00000E096432E604D68DAF80060AD035546C0
:1017B00001D5164300E096432E604D68DBF80060CB
:1017C000ED025D4601D5164300E096432E604D685C
:1017D000DEF80060AD02754601D5164300E0964381
:1017E0002E60641C0A681646E2407FF429AFBDE80B
:1017F000F88F0000000401400000111000100240AA
:101800000000014000080140000C014000100140B0
:101810000014014000180140001C0140806808408D
:1018200000D0012070470AB1016170470904FBE74D
:1018300001488068704700000C00002070B504006B
:1018400025D094F83D00002520B984F83C5020466E
:1018500000F070FA242084F83D002068016821F02F
:10186000010101602068016841F4004101602068C5
:10187000016821F40041016000F0DAFB4D4A616823
:10188000914201D84C4900E04C49884201D20120E4
:1018900070BD4B492368B0FBF1F15E6826F03F064E
:1018A0000E435E606368934206D94FF496735943C2
:1018B0004FF47A73B1FBF3F12368491C1E6A26F0DA
:1018C0003F06314319626168914210D84900401EB9
:1018D000B0FBF1F2521CC2F30B02042A01D2042025
:1018E00022E0B0FBF1F0401CC0F30B001CE0A2684A
:1018F000F2B301EBC10303EB0116431EB3FBF6F396
:101900005B1C43F480431B0549D092B301EBC10239
:1019100002EB0111401EB0FBF1F0401CC0F30B00C4
:1019200040F4804040F400402168CA694CF6FF73DF
:101930009A431043C861D4E9071001432068026844
:1019400022F0C00211430160D4E903010143206881
:10195000826848F2FF339A4311438160D4E905015C
:1019600008432168CA6822F0FF021043C86001E002
:101970000EE016E02068016841F001010160256475
:10198000202084F83D00256384F83E50002070BD7F
:1019900001EB4106431EB3FBF6F35B1CB3E70120EA
:1019A000C2E701EB4101401EB0FBF1F0401CC0F367
:1019B0000B00B7E7A086010080841E0000093D00EF
:1019C00040420F002DE9F84F0025DDF82890984699
:1019D00017468A4604460095FFF72AFF064694F804
:1019E0003D0020287AD11923012283492046009600
:1019F00001F0D6F90028F5D194F83C0001286DD00B
:101A0000012084F83C0020680168C90703D10168FF
:101A100041F0010101602068016821F4006101606A
:101A2000222084F83D00102084F83E00256467627F
:101A3000A4F82A80608D20857048E06233464A46CB
:101A40005146204601F0C2F800287DD1208DDFF8F4
:101A5000B081202768B1012814D0022820680168CD
:101A60001ED041F480610160206841698069009066
:101A7000B5E02068416981690091016841F4007115
:101A80000160ACE02068016821F48061016072B6F9
:101A90002068416981690091016841F400710AE0A0
:101AA00041F40061016072B620684169816900916A
:101AB000016821F48061016062B690E0032868D873
:101AC00001280CD002284B464FF000024146204628
:101AD00000960FD001F064F9B0BB10E08AE0324606
:101AE0004946204601F0DBF970BB20680069616A55
:101AF00008706BE001F054F930BB72B634E0206836
:101B0000016821F48061016072B620680069616A31
:101B10000870606A401C6062208D401E2085608DC8
:101B2000401E6085374846F2A8110068B0FBF1F00E
:101B3000C0EBC00000EB80000090401E009008D079
:101B400020684069C04300E029E040070CD50098B8
:101B5000F3E744F8305F6773A573206940F0200015
:101B6000206162B625731AE02068016841F40071B3
:101B7000016020680069616A0870606A401C6062E8
:101B8000218D491E2185618D491E618562B62168BE
:101B90001AE032464946204601F081F910B1012091
:101BA000BDE8F88F20680069616A0870606A401CAF
:101BB0006062218D491E2185618D491E61852168E4
:101BC0004A69D24352070AD409690170606A401C0D
:101BD0006062208D401E2085608D401E6085208DB6
:101BE00000287FF46BAF84F83D7084F83E5084F891
:101BF0003C50D5E70220D3E7020010000000FFFFB1
:101C000004000100180000202DE9F84F1F469046FF
:101C10008A460446DDF82890FFF70AFE054694F848
:101C20003D0020287FD119230122404920460095FC
:101C300001F0B6F8002876D194F83C00012872D063
:101C4000012084F83C0020680168C90703D10168BD
:101C500041F0010101602068016821F40061016028
:101C6000212084F83D00102084F83E0000262664E0
:101C7000C4F824806785608D20852D48E0622B465E
:101C80004A465146204601F017F890B9206841694C
:101C90008069009036E02A464946204601F032F934
:101CA00050B1206C042804D12068016841F400710F
:101CB00001600120BDE8F88F606A21680078086142
:101CC000606A401C6062618D491E6185218D491EDC
:101CD00089B2218522685369DB435B070BD451B17C
:101CE00000781061606A401C6062608D401E6085F3
:101CF000208D401E20852A464946204601F02AF8BC
:101D00000028CED1208D0028C5D154F83D0B0168A4
:101D100041F400710160202004F81E09E67766771F
:101D20000020C7E7FFE70220C4E700000200100020
:101D30000000FFFF30B585B00021009101910291B4
:101D400003911E4D03681E4C122103221D48AB4215
:101D500016D1A36943F00803A361A369039203F0BA
:101D600008030493C023CDE900316946FFF75AFC0C
:101D7000E06940F40010E061E06900F4001019E04F
:101D8000114DAB4217D1A36943F00803A361A369C6
:101D9000039203F0080304934FF44063CDE900314C
:101DA0006946FFF73FFCE06940F48000E061E069CC
:101DB00000F48000049005B030BD000000540040E5
:101DC00000100240000C01400058004002488168A9
:101DD00002781144816070470C000020074810B55C
:101DE000016841F010010160032000F079F8002043
:101DF00000F006F800F024F8002010BD002002409A
:101E000070B50D4D04464FF47A712878B1FBF0F0AF
:101E10000A490968B1FBF0F000F0F0FA48B9102C5B
:101E200007D200222146501E00F03AF800206C60D4
:101E300070BD012070BD00000C00002018000020C3
:101E40000E4808B5816941F001018161816901F0A5
:101E500001010091C16941F08051C161C06900F088
:101E600080500090052000F03BF80548416821F0C3
:101E7000E06141F00071416008BD000000100240C7
:101E800000000140002809DB00F01F020121914001
:101E90004009800000F1E020C0F800117047000008
:101EA000F0B40E4B1B680C46C3F30223C3F10705C5
:101EB000042D00D90425191D072901D2002300E0B3
:101EC000DB1E012606FA05F1491E214099409E407D
:101ED000761E16403143F0BC02F056BB0CED00E01C
:101EE000064900F0070208684FF6FF03184040EA71
:101EF0000220034A10430860704700000CED00E028
:101F00000000FA052DE9F0470F46050061D0434E69
:101F1000306800F00700B84209D2306820F00700AE
:101F200038433060306800F00700B84251D128686B
:101F30003B4C810712D5400703D5606840F4E06050
:101F400060602878000703D5606840F460506060E6
:101F50006068A96820F0F000084360602878C00736
:101F600028D06868012810D02168022810D089077D
:101F700000292EDA616821F0030101436160FFF757
:101F800057FC804641F288390DE021688903EFE76C
:101F90008901EDE7FFF74CFCA0EB0801494502D9A8
:101FA0000320BDE8F0876068696800F00C00B0EBC2
:101FB000810FEFD1306800F00700B8420BD93068CC
:101FC00020F0070038433060306800F00700B84266
:101FD00001D00120E5E72878400705D56068E96869
:101FE00020F4E060084360602878000706D5606848
:101FF000296920F4605040EAC100606000F038F8C0
:102000006168084AC1F30311515CC8400649086081
:1020100006480068FFF7F4FE0020C2E700200240F7
:102020000010024064690008180000201000002021
:102030000448054900684968044AC1F30221515C1B
:10204000C840704718000020001002407469000862
:102050000448054900684968044AC1F3C221515C3B
:10206000C840704718000020001002407469000842
:1020700012A185B00FC98DE80F0014A0144A0068A2
:1020800004905168134801F00C03042B10D0082B66
:102090000ED1C1F38343C9031DF803000AD551686B
:1020A00004AAC1F34041515C0A4A5043B0FBF1F02D
:1020B00005B0704708494843FAE7000002030405E9
:1020C000060708090A0B0C0D0E0F10100102000084
:1020D0000010024000127A0000093D002DE9F84F7F
:1020E000040070D02078C04DC00749D06868C0F3A4
:1020F0008100012807D06868C0F38100022809D157
:102100006868C00306D52868800339D56068002850
:10211000E7D035E06068B0F5803F0BD010B1B0F586
:10212000A02F11D0286820F480302860286820F47F
:10213000802002E0286840F480302860606890B118
:10214000FFF776FB06460AE0286840F48020286006
:10215000F0E700BFFFF76CFB801B642873D828688A
:102160008003F7D50CE0FFF763FB064605E000BFF0
:10217000FFF75EFB801B6428F0D828688003F7D443
:1021800020789A4E80074FF001094FF0000839D5AA
:10219000686810F00C0F07D06868C0F3810002284F
:1021A00009D16868C00306D42868800714D520695F
:1021B000012808D110E02069B0B1C6F80090FFF7FF
:1021C00037FB074605E00AE1FFF732FBC01B022898
:1021D000C4D828688007F7D52868616920F0F8001E
:1021E00040EAC10028600DE0C6F80080FFF720FB40
:1021F000074604E0FFF71CFBC01B022823D8286811
:102200008007F7D4207800072CD57948A169D9B187
:10221000C0F80090FFF70CFB074604E0FFF708FB4F
:10222000C01B02280FD8686A8007F7D571484FF4A1
:10223000FA510068B0FBF1F0009000BF0098411E19
:102240000091FAD20EE080E0C0F80080FFF7F0FACB
:10225000074604E0FFF7ECFAC01B022875D8686A4D
:102260008007F7D42078400760D5E8690027C000D0
:1022700008D4E86940F08050E861E869012700F07F
:10228000805000905C480168C90513D401688346FA
:1022900041F480710160FFF7CBFA824606E000BF8F
:1022A000FFF7C6FAA0EB0A0064284ED8DBF800005E
:1022B000C005F5D5E06801280AD008B1052813D07B
:1022C000286A20F001002862286A20F0040002E059
:1022D000286A40F001002862E06841F2883B98B12A
:1022E000FFF7A6FA82460BE0286A40F00400286255
:1022F000EEE700BFFFF79CFAA0EB0A0159455AD858
:10230000286A8007F6D50CE0FFF792FA824605E0CE
:10231000FFF78EFAA0EB0A0159454CD8286A8007CE
:10232000F6D41FB1E86920F08050E861E06988B315
:102330006968C1F38101022944D00228C6F860808F
:1023400004D0FFF775FA044638E034E0FFF770FA7E
:10235000074604E0FFF76CFAC01B02282BD8286858
:102360008001F7D4206AB0F5803F05D16868A16884
:1023700020F4003008436860D4E908010843696824
:1023800021F4741108436860C6F86090FFF750FAB2
:10239000044606E025E000BFFFF74AFA001B0228CA
:1023A00009D828688001F7D51BE000BFFFF740FA85
:1023B000001B022802D90320BDE8F88F286880019D
:1023C000F4D40EE00128F7D06868226A00F4803166
:1023D000914204D1616A00F47010884201D001205A
:1023E000EAE70020E8E70000001002400000424257
:1023F00080044242180000200070004010B5401ECA
:10240000B0F1807F01D3012010BD4FF0E024606166
:102410000F21601702F0B8F80020A06107202061AA
:10242000002010BD7047704770B590F83C20012A1D
:102430002CD0012480F83C40022280F83D20036823
:102440005A689D6822F070060A6832435A60104B41
:1024500002689A420ED00F4B9A420BD0B2F1804FD5
:1024600008D00D4B9A4205D00C4B9A4202D00C4B2F
:102470009A4204D1496825F080031943916080F89D
:102480003D40002180F83C10084670BD022070BD20
:10249000002C0140003401400004004000080040CE
:1024A000000C004010B5040003D094F83D0010B1BA
:1024B00007E0012010BD002084F83C00204600F019
:1024C0001FF8022084F83D00211D206801F0B8FEAD
:1024D000012084F8460084F83E0084F83F0084F828
:1024E000400084F8410084F8420084F8430084F8F6
:1024F000440084F8450084F83D00002010BD000031
:1025000008B5114A01681148914208D1C16941F0EA
:102510001001C161C06900F01000009008BD0C4AB4
:102520009142FBD1C16941F02001C161C069002223
:1025300000F02000009001213720FFF7B1FCBDE83A
:1025400008403720FFF79EBC0010004000100240FA
:102550000014004090F83D10012901D0012070477F
:10256000022180F83D100168CA6842F00102CA6089
:1025700000680E4988420ED00D4988420BD0B0F158
:10258000804F08D00B49884205D00B49884202D0C1
:102590000A49884204D1816801F00701062903D065
:1025A000016841F00101016000207047002C0140EA
:1025B000003401400004004000080040000C0040CE
:1025C000704770B50446006801694FF00005C943C3
:1025D000890715D4C168C943890711D4E91E01616F
:1025E00001202077206880698007204602D0FFF70D
:1025F000E7FF04E000F098F8204600F096F8257711
:1026000020680169C943490717D4C168C94349070C
:1026100013D46FF0040101610220207720688069E3
:1026200010F4407F204602D0FFF7CAFF04E000F01C
:102630007BF8204600F079F8257720680169C943C6
:10264000090716D4C168C943090712D46FF00801FD
:102650000161042020772068C0698007204602D0ED
:10266000FFF7AEFF04E000F05FF8204600F05DF8F1
:10267000257720680169C943C90617D4C168C943D1
:10268000C90613D46FF0100101610820207720687B
:10269000C06910F4407F204602D0FFF791FF04E0AC
:1026A00000F042F8204600F040F8257720680169E4
:1026B000C943C90708D1C168C943C90704D1891EE4
:1026C0000161204600F032F820680169C94309061B
:1026D00009D4C168C943090605D46FF080010161BE
:1026E0002046FFF79FFE20680169C943490609D4C7
:1026F000C168C943490605D46FF040010161204615
:1027000000F01CF820680169C94389060BD4C16830
:10271000C943890607D46FF0200101612046BDE856
:102720007040FFF780BE70BD704770470248418817
:10273000491C41807047000000000020704770472E
:1027400070470000F8B5026804461068D168536904
:1027500010F00F0F4FF0000554D003F0010601F404
:10276000907737435FD0C20705D0CA0503D5226CE6
:1027700042F001022264420705D5DA0703D0226C39
:1027800042F002022264820705D5DA0703D0226CE8
:1027900042F004022264020707D501F0200232430E
:1027A00003D0226C42F008022264226C002A35D049
:1027B000800604D5880602D5204601F0A7FD2068D2
:1027C0004069216CC0F3801001F0080101432046EC
:1027D00025D001F083FD2068416949061BD5416978
:1027E00021F040014161A06BA8B158494163A06B41
:1027F000FEF746FE002811D0A06B416B01B0BDE88A
:10280000F040084783060ED58B060CD52046BDE860
:10281000F84001F07BBD2046FFF792FFF8BDFFF7BF
:102820008FFF2564F8BD266B2023012E52D1C606EA
:1028300050D5CE064ED510685068009050694006BD
:102840002AD5A16B086840680004000CEAD0A68D68
:102850008642E7D9E0858869202818D0D06820F41E
:102860008070D0602068416921F0010141612068D9
:10287000416921F04001416184F83E3025632068C0
:10288000C16821F01001C160A06BFEF7D5FDA08DDD
:10289000E18D401A81B219E0A08DE18D401A81B21C
:1028A000E08D0028BED00029BCD0D06820F4907004
:1028B000D0602068426922F00102426184F83E3013
:1028C00025632068C26822F01002C2602046FFF72C
:1028D00036FFF8BD05062BD50D0629D594F83D0029
:1028E0002128F6D1A068B0F5805F01D12069B0B190
:1028F000206A411C2162216800784860E08C401EFB
:102900000004000CE084E4D12068C16821F080015B
:10291000C1602068C16841F04001C160F8BD206A13
:102920000088C0F308005060206A801C2062E5E740
:102930004006F3D54806F1D5D168204621F0400184
:10294000D16084F83D3000F028F9F8BDCD42000890
:1029500070B5040004D094F83D00002510B106E0E5
:10296000012070BD84F83C50204600F023F824205C
:1029700084F83D002068C16821F40051C160204600
:1029800001F020FD2068016921F490410161206877
:10299000416921F02A0141612068C16841F4005178
:1029A000C1602564202084F83D0084F83E000020AA
:1029B00070BD000070B586B00024009401940294AC
:1029C00003942B4E03682B49022003222A4DB34265
:1029D00021D18B6943F480438B618B6903F480437D
:1029E00004938B6943F004038B618969039201F0BE
:1029F000040104910102CDE9001069462846FEF762
:102A000011FE2815CDE90004694628460294FEF718
:102A100009FE06B070BD194EB342FAD1CB6943F43A
:102A20000033CB61CB6903F4003304938B6943F02B
:102A300004038B618969039201F00401049104216C
:102A4000CDE9001069462846FEF7ECFD0820CDE9E7
:102A50000004694628460294FEF7E4FD012211466F
:102A60002620FFF71DFA2620FFF70CFAD1E7000019
:102A700000380140001002400008014000440040BE
:102A800090F83E30202B0ED159B152B190F83C3025
:102A9000012B08D0012380F83C300023036301F0B0
:102AA000EDBC0120704702207047000000680A4911
:102AB00088420CD109494888802801D300204880E9
:102AC0000648074B027848881A54401C4880012267
:102AD00002490448FFF7D4BF004400401C00002016
:102AE00034030020F00200202DE9F843044690F85A
:102AF0003D001F4616460D4620284CD1C5B1BEB13B
:102B000094F83C00012846D0012084F83C004FF0A6
:102B10000008C4F84080212084F83D00FEF788FEBC
:102B2000A6848146E684A068B0F5805F03D004E007
:102B30000120BDE8F883206928B12E465FF000052A
:102B400084F83C800EE00026FAE78021204601F060
:102B5000B0FCA0B9AEB116F8010B21684860E08C5A
:102B6000401EE084E08C4B464FF0000200970028A6
:102B7000EBD14FF04001204601F09BFC30B1032027
:102B8000D7E735F8020BC0F30800E6E7202084F809
:102B90003D000020CDE70220CBE77047FEE701684B
:102BA0004A69D24352050FD46FF480624A61002112
:102BB00040F8301F202242738173026942F0040200
:102BC0000261017301207047002070472DE9F84F22
:102BD0000446C06A1E4693460D4621680A6842F4C0
:102BE00080620A60082807D0012805D010F5803FD0
:102BF00002D0206B112804D12068016841F4807153
:102C000001604FF001195B460022494620460096BC
:102C100000F0C6F84FF4007840B120680068C005A5
:102C200001D5C4F840800320BDE8F88F2069DFF8A3
:102C300084A0B0F5804F0FD00620216800EAD51798
:102C400047F0F000086133465A460AF10601204673
:102C500000F0DAF858BB03E0E8B240F001001CE0F5
:102C60002168E8B2086133465A465146204600F0D2
:102C7000CBF8E0B92068416981690091016841F4AD
:102C8000807101605B46002249462046009600F0B4
:102C900087F80028C1D147F0F10021680861334668
:102CA0005A465146204600F0AFF80028BCD001201B
:102CB000BAE7000002000100F8B50446C06A1E46EB
:102CC0000D461746082807D0012805D010F5803F8B
:102CD00002D0206B122804D12068016841F4807171
:102CE0000160134600224FF001112046009600F0CB
:102CF00057F840B120680068C00502D54FF4007055
:102D000020640320F8BD2069B0F5804F0ED0062066
:102D1000216800EAD51040F0F000086133463A46D9
:102D20000B49204600F070F878B902E005F0FE008B
:102D300000E0E8B221680861054933463A46891F38
:102D4000204600F061F80028DCD00120F8BD00002A
:102D50000800010070B516460D4604460DE02046F9
:102D6000FFF71DFF08B1012070BD681C05D0FEF7FC
:102D70005FFD801BA84207D835B120684069C04379
:102D80004007ECD4002070BD002044F8300F202113
:102D90006173A073216941F0200121612073E2E792
:102DA0002DE9F0471E4690460D460446C1F30747FD
:102DB000DDF8209008E0701C06D0FEF739FDA0EB8E
:102DC0000900B0420FD876B12068012F18D0806971
:102DD00025EA00000004000C14D000214145EAD08F
:102DE0000020BDE8F087002044F8300F20216173F7
:102DF000A073216941F02001216120730120F0E7D7
:102E00004069E5E70121E9E72DE9F0479A46914657
:102E10000E46044600254FF02008C1F3074725E081
:102E200020684069C043400514D42068016841F41B
:102E30000071016021686FF480604861256384F847
:102E40003D8084F83E50206C40F00400206484F8FB
:102E50003C501FE0B9F1FF3F08D0FEF7E9FCA0EBC2
:102E60000A0149450CD8B9F1000F09D02068012F9B
:102E700013D0806926EA00000004000C0BD0CFE7D5
:102E800044F8305F84F80D80A573206940F020007D
:102E9000206125730120BDE8F0874069EAE72DE94C
:102EA000F041002590460E460446202717E0406971
:102EB000C043C0060CD454F8301B6FF010004861BA
:102EC00044F810596777A577206A2062257717E0C4
:102ED000FEF7AEFCA0EB0800B04208D83EB1206877
:102EE0004169C9434906E2D40020BDE8F08144F8B5
:102EF000305F6773A573206940F02000206125735F
:102F00000120F2E770B516460D4604460DE0204656
:102F1000FFF745FE08B1012070BD681C05D0FEF723
:102F200087FC801BA84207D835B120684069C043A0
:102F30000006ECD4002070BD002044F8300F2021A2
:102F40006173A073216941F0200121612073E2E7E0
:102F5000012220210148FEF766BC0000000C014060
:102F6000002220210148FEF75EBC0000000C014059
:102F700010B50446007B012802D1206801F018FB3F
:102F8000002020606060A060207310BD5FF001022F
:102F900000F07F030B70C00909D043F08003521C7E
:102FA00001F8013B042AF3DD4FF0FF307047104673
:102FB00070472DE9F0410446002500680F462E4673
:102FC00010B10220207315E001202073084601F0A3
:102FD0001DFB2060002808D0C4E9016702E02068DA
:102FE00046556D1CA068A842F9D8BDE8F08120685C
:102FF00046556D1CA068A842F9D866608842F4D294
:103000002660F2E72DE9FF47174688468146FDF71F
:1030100001F984B24046FDF7FDF80026E01D01F0FD
:10302000F5FA050025D0E11DFDF7CDF812A02246E6
:10303000016829608088A88049462846FDF7FFF886
:103040004046FDF7E7F8034600200DF1040A012190
:1030500000908AE88300424629460A2000F042F99F
:1030600000B10126284601F0A3FA304604B0BDE8BD
:10307000F0870120FAE7000024637273702F0000CC
:103080002DE9FF5F9A46934600251046DDF84490EF
:103090000E9F139CFDF7BEF806B2BBF1000F1FD0C8
:1030A00006F111001FFA80F807B10225109868B1E7
:1030B00045F00405FDF7AEF8C7B24846FDF7AAF89B
:1030C000C11901EB0800001D1FFA80F80F9870B1BC
:1030D000012807D0022808D0022004B0BDE8F09FE4
:1030E0000120FAE745F00C0501E045F014051298BF
:1030F00008B145F02405009860B3019850B345F03D
:10310000C0070098FDF786F805460198FDF782F89C
:10311000291801EB0800001D85B229462046FFF75B
:1031200048FF2068C0B12946FDF74DF8D4E90030CA
:10313000411C102261601A54D4E900010144681F47
:10314000FFF724FF00B2002808DA2046FFF710FF3F
:103150000520C2E70320C0E70420BEE761682368BA
:103160000844411C616000221A54D4E90030421C1A
:10317000042162601954D4E90050421C4D2362605E
:103180002B54D4E90050421C626051232B54D4E9E3
:103190000030451C542265601A54D4E90050431C89
:1031A00063602A54D4E90030421C62601954D4E9A7
:1031B0000020411C61601754D4E90030411C4FEAE3
:1031C0001A2261601A54D4E90030421C626003F88C
:1031D00000A0D4E90030411C320A61601A54D4E9DD
:1031E0000020411C61601654D4E9000108443246B5
:1031F0005946FDF724F8606830446060780736D59A
:10320000B9F1000F01D10FF2D8091098FDF702F8BB
:1032100085B2D4E90030411C2A0A61601A54D4E90D
:103220000020411C61601554D4E9000108442A467D
:103230001099FDF704F86068284460604846FCF780
:10324000E9FF85B2D4E90030411C2A0A61601A54B2
:10325000D4E90020411C61601554D4E90001084400
:103260002A464946FCF7EBFF606828446060380650
:1032700018D50098FCF7CEFF85B2D4E90030411C88
:103280002A0A61601A54D4E90020411C6160155477
:10329000D4E9000108442A460099FCF7D0FF606891
:1032A00028446060780618D50198FCF7B3FF85B212
:1032B000D4E90030411C2A0A61601A54D4E9002084
:1032C000411C61601554D4E9000108442A46019963
:1032D000FCF7B5FF6068284460600020FDE6000050
:1032E000000000002DE9FF4F81B090464FF000062E
:1032F000119C0F9A9A465FEA000BB146314608D1FD
:10330000012005B0BDE8F08F232816D02B2814D05B
:10331000761C0298805D0028F6D141F030070AB192
:1033200047F0010706EB0A050E98AD1C68B10128AD
:1033300005D0022806D00320E3E70220E1E747F0AA
:10334000020701E047F00407AD1CB8F1000F03D0FD
:1033500098F80000022807D0691D2046FFF729FED3
:10336000206850B3691D14E05FF0000018F80010E9
:10337000401C7D29FAD100F10409AAEB0900291AA1
:1033800000912046C91CFFF714FE2068A8B10099DF
:10339000C91CFCF718FFD4E90020411C61601754D8
:1033A000D4E9000101442846FFF7F0FD002806DAC1
:1033B0002046FFF7DDFD0520A3E70420A1E76168B3
:1033C00023680844411C320A61601A54D4E9002081
:1033D000411C61601654D4E9000108443246029948
:1033E000FCF72DFF6068304460600E9959B1236886
:1033F000411C4FEA1B2261601A54D4E90030421C80
:10340000626003F800B0B8F1000F0ED098F8000029
:103410000228D4E90001084409D052464146FCF78D
:10342000B9FE616801EB0A006060002069E74A4666
:103430004146FCF7AFFE616801EB0900F4E770B5A7
:103440000C46054604212046FFF7B3FD2168B9B1BB
:1034500060687023421C62600B54D4E90030411C48
:10346000022261601A54D4E90030411C2A0A6160CA
:103470001A54D4E90020411C61601554002070BD2D
:10348000012070BD70B50C46054604212046FFF7AB
:1034900090FD2168B9B160686223421C62600B54E0
:1034A000D4E90030411C022261601A54D4E9003092
:1034B000411C2A0A61601A54D4E90020411C616051
:1034C0001554002070BD012070BD2DE9F0474FF06C
:1034D0000008089C1F4691468A46060045460AD1C8
:1034E0000120BDE8F08759F8250020B3FCF792FED3
:1034F0006D1C8044EDB2BD42F5D307EB470101EBF3
:103500000805E91D2046AD1CFFF753FD2168A1B158
:1035100060688222431C63600A54D4E900010144BC
:103520002846FFF733FD00B2002808DA2046FFF7EF
:103530001FFD0420D5E70220D3E70320D1E761680F
:1035400023680844411C320A61601A54D4E90020FF
:10355000411C61601654002520E059F82500FCF755
:1035600059FE0646020AD4E90030411C61601A5433
:10357000D4E900314A1C62605E54D4E90001084479
:1035800059F825103246FCF75AFE6068236830442B
:10359000411C61606D1C03F800A0EDB2BD42DCD39C
:1035A00000209EE7F0B50446002001235D05106071
:1035B00012E0275C166807F07F0707FB03661660BA
:1035C000265C360601D4401CF0BDDB01AB4202D3C1
:1035D0006FF00100F0BD401C8842EADB4FF0FF3085
:1035E000F0BD2DE9F8430E4607461D4690462F21B3
:1035F000801DFCF705FE0021009150B3441C6A4673
:103600000421781CFFF7CEFF252000F0FFFF30607B
:1036100008B32521FCF7D7FD242221463068FCF7AA
:10362000B9FD009824342C3880B22880401C00F06A
:10363000EDFFC8F8000080B12988491CFCF7C3FDE4
:103640002A882146D8F80000FCF7A4FD0020BDE838
:10365000F8830120FBE70220F9E7306800F0A8FFBB
:103660000320F4E74178022901D0012070478178D6
:1036700019B1012901D0FF207047C07870470000C0
:103680002DE9F84F04460078DDE90A7B00F00F09C8
:1036900000200E460090C9F3410115468BF800103A
:1036A000984609F0080A6A460421601CFFF77AFF71
:1036B00004440099641C022942D35FEAC9703FD1D7
:1036C000208840BA2880801C88427AD83EA1A01C5D
:1036D000FCF784FD10B10F20BDE8F88F9BF80000C7
:1036E00020B101282DD002286BD12AE0BAF1000FB9
:1036F00067D12888401C00F089FF3060002860D026
:103700002988491CFCF75FFD2A88A11C3068FCF75A
:1037100041FD28880099081A801E80B23880401C1C
:1037200000F074FFC8F8000038B13988491CFCF774
:103730004AFD3A882888A41C33E0306800F038FF3E
:103740003FE02888009A811C91423AD8A11C084485
:103750000C99008840BA08800C9890B32888401CC7
:1037600000F054FF306060B32988491CFCF72BFD42
:103770002A88A11C3068FCF70DFD28880099081ADA
:10378000001F80B23880401C00F040FFC8F80000E5
:103790000028D2D03988491CFCF715FD3A882888C2
:1037A000241D0119D8F80000FCF7F4FC2B21304649
:1037B000FCF726FD28B923213046FCF721FD00281F
:1037C0008AD0FF2088E70000246372657100000042
:1037D0004178022904D1817811B9C0780A2801D032
:1037E00001207047002070474178022904D1817878
:1037F00011B9C0780A2801D0012070470020704715
:103800004178022904D1817811B9C0780A2801D001
:1038100001207047002070474278022A09D182783F
:10382000B2EB112F05D1C078C9B2884201D1002076
:10383000704701207047000038B504460078FF212A
:103840000009421E0E2A01D3084638BD0328FCD1C8
:10385000002000906A460421601CFFF7A3FE20446C
:103860000099401C022907D32278D20704D102888C
:1038700052BA921C8A4201D9FF2038BD04A1801C93
:10388000FCF7ACFC08B10F2038BD032038BD0000A8
:1038900024637265710000000146FF208A78002AC7
:1038A0000BD1CA78142A08D1087938B1012805D07B
:1038B000022803D0802803D00220704700207047E0
:1038C00001207047827801211AB9C0781E2800D1E2
:1038D00000210846704700002DE9F04786B000251A
:1038E0002A480095019502950395816941F04001B0
:1038F0008161816901F040010491816941F0040115
:103900008161816901F004010491816941F008013C
:103910008161816901F008010491816941F480713C
:1039200081618069DFF8688000F480700490012272
:1039300040214046FDF777FF0122DFF85890D7027B
:1039400039464846FDF76FFFDFF84CA001222021E1
:103950005046FDF768FF4020012403268DE87100E2
:1039600069464046FDF75EFECDE90074CDE90246AA
:1039700069464846FDF756FE20208DE871006946ED
:103980005046FDF74FFE06B0BDE8F087001002403C
:103990000018014000200140000C01400D4810B506
:1039A0000B4901600C49416000214FF48042816065
:1039B000C0E9031241618161C1610162FDF73EFF0F
:1039C000002803D0BDE81040FDF700BD10BD000089
:1039D0000054004074010020801A06000D4810B504
:1039E0000B4901600C49416000214FF48042816025
:1039F000C0E9031241618161C1610162FDF71EFFEF
:103A0000002803D0BDE81040FDF7E0BC10BD000069
:103A100000580040C8010020801A06001CB5002490
:103A20000E4800940C49019401604721C0E901143B
:103A30004FF6FF718461C160FEF734FD08B1FDF7F8
:103A4000C5FC0094694605480194FEF7EDFC00288A
:103A500001D0FDF7BBFC1CBD001000401C02002083
:103A60001CB500240E4800940C49019401604721C4
:103A7000C0E9011440F2E7318461C160FEF712FD34
:103A800008B1FDF7A3FC0094694605480194FEF7D0
:103A9000CBFC002801D0FDF799FC1CBD00140040B0
:103AA000640200200C4810B50A4901604FF4E1316E
:103AB0004160002181600C22C160C0E90412816173
:103AC000C161FEF745FF002803D0BDE81040FDF7B7
:103AD0007DBC10BD00380140AC02002010B5114C77
:103AE0000F480C2120604FF4E13060600020A0609E
:103AF000E060C4E90401A061E0612046FEF728FF10
:103B000008B1FDF763FC2068C16841F02001C16085
:103B1000BDE81040012204490248FEF7B1BF000091
:103B200000440040F00200201C000020FEE7FEE7F9
:103B300030B58BB00024069407940894012524A383
:103B400025A227A128A0099400F0FAFC06A8CDE937
:103B500004400294039400942B021DA21EA120A0F5
:103B60000194FFF78DFA28B12BA000F0E9FC0BB00F
:103B7000284630BD079881B20698FDF7C9FBFA20A8
:103B8000FDF752FA04001DD0FFF756FE022819D1A6
:103B90002046FFF767FD062818D2DFE800F003088B
:103BA0000A0C0E1025A000F0CBFC00250AE028A08E
:103BB00006E02EA004E036A002E03DA000E045A013
:103BC00000F0BEFC06A8FFF7D3F9D0E74CA0F7E75A
:103BD00035363136383339007465737400000000AF
:103BE00037373234370000004F6E654E65745F44DE
:103BF00065764C696E6B0D0A50524F49443A202548
:103C0000732C09415549463A2025732C09444556E1
:103C100049443A25730D0A005741524E3A094D5115
:103C200054545F5061636B6574436F6E6E6563746B
:103C3000204661696C65640D0A0000005469707368
:103C40003A09C1ACBDD3B3C9B9A60D0A0000000042
:103C50005741524E3A09C1ACBDD3CAA7B0DCA3BA92
:103C6000D0ADD2E9B4EDCEF30D0A00005741524E6B
:103C70003A09C1ACBDD3CAA7B0DCA3BAB7C7B7A8CD
:103C8000B5C4636C69656E7469640D0A0000000058
:103C90005741524E3A09C1ACBDD3CAA7B0DCA3BA52
:103CA000B7FECEF1C6F7CAA7B0DC0D0A00000000CF
:103CB0005741524E3A09C1ACBDD3CAA7B0DCA3BA32
:103CC000D3C3BBA7C3FBBBF2C3DCC2EBB4EDCEF3E3
:103CD0000D0A00005741524E3A09C1ACBDD3CAA7E4
:103CE000B0DCA3BAB7C7B7A8C1B4BDD328B1C8C8A0
:103CF000E7746F6B656EB7C7B7A8290D0A0000009F
:103D00004552523A09C1ACBDD3CAA7B0DCA3BACE62
:103D1000B4D6AAB4EDCEF30D0A00000070B588B099
:103D200000250C460A46064601460495059506956B
:103D300014A0079500F004FC1EA000F001FC1DA0DB
:103D400000F0FEFB1FA000F0FBFB2046FCF762FA30
:103D50000346022204A90120CDE90025CDE9020194
:103D6000224631460A20FFF7BDFA002807D1059800
:103D700081B20498FDF7CCFA04A8FFF7F9F808B06F
:103D800070BD00002020205075626C69736820545B
:103D90006F7069633A2025732C204D73673A202594
:103DA00073202020202020202020202020200D0AE9
:103DB000000000007C7C090909090909097C7C0DC7
:103DC0000A0000003D3D3D3D3D3D3D3D3D3D3D3D0D
:103DD0003D3D3D3D3D3D3D3D3D3D3D3D3D3D3D3D13
:103DE0003D3D3D3D3D3D3D3D3D3D3D3D3D3D3D3D03
:103DF0003D3D3D3D3D3D3D3D0D0A0000F0B50746D2
:103E0000002091B00446089005900390049006901D
:103E10000790ADF82800ADF824008DF83400064670
:103E20003846FFF709FD0546C01E65490D2877D2C3
:103E3000DFE800F01F555C7788AC8EAC96ACACAC7C
:103E4000070009AB03AA04A93846FFF7CAFB040020
:103E50001CD1DDE90321BDF824305AA000F070FB2D
:103E6000DDE9031005AAFFF7CDF800287FD15EA099
:103E70004BE00DA809AACDE90020029103AB0AAAE4
:103E800004A93846FFF7FCFB040004D0FDF7BEF898
:103E9000601C7DD06DE0BDF824000090DDE90331A9
:103EA000BDF8282056A000F04BFB039801F08EF8D7
:103EB000070007D061A101F07BF8406948B1FFF726
:103EC0004FF808E001F06CF801465DA000F038FB07
:103ED00001E0FFF73DF8384601F03EF847E038468C
:103EE000FFF776FC002842D15AA03EE03846FFF7A3
:103EF00087FC00283BD15FA000F022FB05A90A2027
:103F0000FFF7C0FA002832D160A000F019FB069834
:103F100081B20598FDF7FCF905A8FFF729F826E01E
:103F200034E009883846FFF777FC00281FD15DA0F0
:103F300000F006FB05A90A20FFF781FA002816D138
:103F40005EA0E2E73846FFF74FFC80B962A00CE0C4
:103F50003846FFF7A1FC08B165A006E06BA004E0BD
:103F60003846FFF7AFFC78B16FA000F0E9FAFDF733
:103F70004DF87D210398FCF743F9B0B1641C14D0CF
:103F80000EAA401C09E003E06FA0EEE7FDF73EF843
:103F900011B0F0BD9155401C761C0178A1F13003A1
:103FA000092BF7D91046FCF709FB0F2D01D0032D83
:103FB000EED1049800F0FCFA039800F0F9FAE7E774
:103FC00022000020636D6469643A2025732C2072FE
:103FD00065713A2025732C207265715F6C656E3AAD
:103FE0002025640D0A000000546970733A09536576
:103FF0006E6420436D64526573700D0A000000000A
:10400000746F7069633A2025732C20746F70696334
:104010005F6C656E3A2025642C207061796C6F614D
:10402000643A2025732C207061796C6F61645F6C39
:10403000656E3A2025640D0A000000004C454400DE
:104040004572726F72206265666F72653A205B25F9
:10405000735D0A00546970733A094D5154542050ED
:1040600075626C6973682053656E64204F4B0D0A4E
:1040700000000000546970733A095265762050754B
:10408000626C6973685265630D0A0000546970734D
:104090003A0953656E64205075626C6973685265A5
:1040A0006C0D0A00546970733A0952657620507598
:1040B000626C69736852656C0D0A00005469707314
:1040C0003A0953656E64205075626C697368436F7A
:1040D0006D700D0A00000000546970733A09526552
:1040E00076205075626C697368436F6D700D0A00BD
:1040F000546970733A094D51545420537562736377
:1041000072696265204572720D0A0000546970730D
:104110003A094D5154542053756273637269626554
:10412000204F4B0D0A000000546970733A094D513D
:10413000545420556E5375627363726962652045ED
:1041400072720D0A00000000546970733A094D51F3
:10415000545420556E537562736372696265204FC3
:104160004B0D0A0070B586B000240D46064601943A
:1041700002940394049406E056F824100DA000F075
:10418000DFF9641CE4B2AC42F6D301A800902B46E0
:10419000324602211420FFF798F9002807D102982F
:1041A00081B20198FDF7B4F801A8FEF7E1FE06B070
:1041B00070BD000053756273637269626520546F4D
:1041C0007069633A2025730D0A000000704770473C
:1041D000FDF7FCBD30B58FB028216846FBF7F3FF33
:1041E00014210AA8FBF7EFFF01210804CDE9001014
:1041F0000024029402250491CDE907504FF4E01009
:1042000009906846FDF76AFF08B172B6FEE70F2015
:10421000CDE90A054FF48060CDE90C4002210AA8DF
:104220000E94FDF76FFE002801D072B6FEE70FB0C6
:1042300030BD70470148FEF7C4B900006402002099
:10424000F0B502681C4B1D4D1D4E1E4F1E4C4FF00D
:10425000804C984209D0A04207D0604505D0A842C2
:1042600003D0B04201D0B84204D122F0700E4A68A7
:1042700042EA0E02984209D0A04207D0604505D01C
:10428000A84203D0B04201D0B84203D122F4407515
:10429000CA682A434D6922F080022A4302608A6874
:1042A000C2620A688262984201D0A04201D10969C3
:1042B000016301214161F0BD002C01400004004078
:1042C00000080040000C00400034014010B5406A76
:1042D0000021C185C184FEF733FA10BD0168CA68A8
:1042E00022F49072CA6001684A6922F001024A61B0
:1042F000016B012904D10168CA6822F01002CA606A
:10430000202180F83E1000210163704708B590F825
:104310003E10222901D0022008BD82684FF480534C
:104320009A4201D1016921B1816A9A421BD04AB1F6
:104330000AE00268816A5268C2F308020A80816A50
:10434000891C08E0026972B10268526802F07F02BB
:104350000A70816A491C8162C18D491E0904090CD9
:10436000C18503D019E002685268F1E70168CA68A4
:1043700022F02002CA600168CA6822F48072CA6012
:1043800001684A6922F001024A61202180F83E104A
:10439000016B012903D0FEF789FB002008BD002135
:1043A00001630168CA6822F01002CA6001680A68E5
:1043B000D20602D50A6849680091818DFEF7BFF9DF
:1043C000EBE7000070B5044600680169E26821F47B
:1043D0004051114301612169A068084361690843A4
:1043E0002168CA6841F20C639A430243CA6020689C
:1043F0004169A26921F44071114341611E4920685D
:10440000884202D1FDF724FE01E0FDF711FE00EB2A
:10441000C00101EB0012606864218000B2FBF0F380
:10442000B3FBF1F36FF018067343B2FBF0F5B2FB88
:10443000F0F605EB8305322303EB0515B5FBF1F52B
:10444000B6FBF1F605F0F00505EB0615B2FBF0F64C
:10445000B2FBF0F0B0FBF1F06FF01802504306EB46
:10446000800003EB0010B0FBF1F0216800F00F00BA
:104470002844886070BD0000003801408162828558
:10448000C28500210164222280F83E2080F83C1081
:104490000168CA6842F48072CA6001684A6942F0E1
:1044A00001024A610068C16841F02001C16000203A
:1044B00070472DE9F041984617460E460446069D82
:1044C0001DE0681C1BD02DB1FDF7B2F9A0EB080070
:1044D000A84214D92068C16821F4D071C160206855
:1044E000416921F001014161202084F83D0084F8F8
:1044F0003E00002084F83C000320BDE8F0812068E5
:10450000006836EA000004D00020B842D9D000206C
:10451000F3E70120F9E700000148FEF713B90000B6
:10452000F0020020FEE70FB44FF47A7310B502A832
:10453000DDE91312FEF7D8FA10BC5DF814FB000099
:104540000FB4054B10B503A9044A029800F050F9C6
:1045500010BC5DF814FB00008951000844000020E5
:104560000FB4084B10B504A902AA039800F040F953
:10457000044602A9002000F0D2FC204610BC5DF8E1
:1045800014FB00001F4F00080907090E002804DB78
:1045900000F1E02080F80014704700F00F0000F1F7
:1045A000E02080F8141D704700487047500000203C
:1045B00030B528B1144C031F002021680A4605E0DD
:1045C000084630BD9A4203D810465268002AF9D1F5
:1045D000002800D041680BD00468A3EB0005A54279
:1045E00004D11B681C440346046002E0436000E001
:1045F00023603AB11C68D51AA54203D115682C4432
:104600001C6052685A6030BD480000202DE9F04718
:1046100082460F4C10480D4E0E4F001B4FF0000805
:1046200020F007054FF0010900221146504600F026
:10463000F5FD002802D1306810B10020BDE8F087F8
:104640003C60C4E90058C6F80090EDE74C0000203B
:104650003C040020480000203806002002E008C882
:10466000121F08C1002AFAD170477047002001E0EC
:1046700001C1121F002AFBD1704700002DE9FF5F26
:10468000DDE90220010DDDF838B0024318D044F610
:104690001050A1F2FF3141430D140F98012820D092
:1046A000A5EB0B00401C5FEA000A4FF00004474EE8
:1046B000DFF81C91A046504616D5CAF1000728E045
:1046C0000F98012443A2012808D0002100980F9BD5
:1046D000C0E90021C0E90243BDE8FF9F6FEA0B017A
:1046E000F4E7CBF10000DEE7074612E0F80707D059
:1046F0002246334640464946FCF714F88046894630
:104700002246334610461946FCF70CF804460E467E
:104710007F10002FEAD1DDE90201BAF1000F424615
:104720004B4602DAFBF7FEFF01E0FCF76DF80446AA
:104730000E460022284BFCF71BF903D84FF0FF3040
:10474000014607E00022254B20463146FBF743FF98
:10475000FCF79DFA102409E0002C0ADB0A22002352
:10476000FCF734F9019B30321A55641E50EA0102FD
:10477000F2D1641C019AC4F1110314440F9A012A66
:1047800003D0012208430DD10AE0084304D00020E1
:104790004FF0110B0F9080E7A3EB0B056D1E0DE0A2
:1047A0005B4504DD4FF0000205F1010504E003DA8A
:1047B0004FF00002A5F10105002AECD000980F99F6
:1047C000C0E90231C0E9004586E70000000024404E
:1047D0000000F03F300000000000F0430000E03F28
:1047E00030380A2801D201207047002070470000AD
:1047F0002DE9FF4F95B09B468946064600250FE2FE
:10480000252877D100242746F84A0121059400E0A5
:10481000044316F8013F203B01FA03F01042F7D1A0
:1048200030782A2811D06FF02F033078A0F13002B1
:10483000092A16D8059A44F0020402EB820203EB1F
:1048400042021044761C0590EFE759F8042B0592BC
:10485000002A03DA504244F40054059044F0020464
:10486000761C30782E2816D116F8010F44F0040477
:104870002A280DD06FF02F023078A0F13003092BD9
:1048800009D807EB870302EB4303C718761CF3E74D
:1048900059F8047B761C30786C280FD006DC4C2845
:1048A00017D068280DD06A2814D104E0742810D0DD
:1048B0007A280FD10DE044F400140AE044F4801487
:1048C00001E044F440147278824202D104F580146D
:1048D000761C761C307866280BD013DC582877D0ED
:1048E00009DC002875D04528F6D04628F4D04728A2
:1048F0001AD19DE118E0632835D0642879D0652865
:1049000012D195E1702873D008DC6728F1D06928AE
:104910006FD06E280DD06F2806D1B5E073282CD04B
:10492000752875D0782874D05A46179990476D1C11
:1049300075E1C4F30250022809D003280DD0D9F83C
:10494000001004280DD00D6009F1040967E1D9F8C1
:104950000010EA17C1E90052F6E7D9F800100D80FF
:10496000F2E70D70F0E719F8041B8DF80010002035
:104970008DF80100EA46012003E059F804AB4FF03E
:10498000FF3061074FF0000102D40DE008F1010192
:104990008846B9420FDA8045F8DB1AF8081000297A
:1049A000F4D108E008F1010188468142FADB1AF8E7
:1049B00008100029F6D105985B46A0EB08072146B0
:1049C0003846179A00F094FA284400EB080507E0EF
:1049D0004DE029E10DE01AF8010B5A46179990476E
:1049E000B8F10108F7D25B4621463846179A13E121
:1049F00042E00A220092C4F302524FF0000A022A57
:104A000008D059F804CB032A4FEAEC710AD00DE024
:104A100029E02AE009F1070121F00702F2E802C1CA
:104A2000914609E00FFA8CFC4FEAEC71042A03D19D
:104A30004FFA8CFC4FEAEC71002907DA0A46002194
:104A4000DCF1000C61EB02012D2202E0220504D50D
:104A50002B228DF80420012203E0E20701D020225E
:104A6000F7E7904659E00A2102E010220DE01021FC
:104A70004FF0000A00910BE010224FF0000A44F0C2
:104A800004040827009203E008224FF0000A009275
:104A9000C4F30252022A05D059F804CB0021032A9C
:104AA00008D009E009F1070121F00702F2E802C18C
:104AB000914605E01FFA8CFC042A01D10CF0FF0C92
:104AC0004FF00008220728D5702806D0009B83F0FD
:104AD000100353EA0A0305D00EE040228DF80420AB
:104AE000012208E05CEA010206D030228DF80420A1
:104AF0008DF8050002229046009B83F0080353EADC
:104B00000A030AD15CEA010201D1620705D530220D
:104B10008DF804204FF001087F1E582804D034A0DF
:104B200003900EA802900DE036A0F9E753466046C8
:104B3000009AFBF74BFF84460398825C0298401E64
:104B4000029002705CEA0100F0D1029806A9081AEE
:104B500000F1200A600702D524F4803400E0012728
:104B6000574502DDA7EB0A0000E0002000EB0A0138
:104B7000009005984144401A0590E00306D45B4636
:104B80002146179A059800F0B3F90544002706E07E
:104B900001A85A46C05D179990476D1C7F1C474578
:104BA000F6DBE0030CD55B462146179A059800F02A
:104BB0009FF9054404E030205A46179990476D1C30
:104BC0000099481E00900029F5DC08E0029802993F
:104BD0005A460078491C0291179990476D1CBAF10A
:104BE0000001AAF1010AF1DC65E1000009280100D9
:104BF0003031323334353637383961626364656653
:104C00000000000030313233343536373839414214
:104C1000434445460000000000F058F90544761C66
:104C2000307800287FF4ECAD19B02846BDE8F08F4D
:104C3000620700D4062709F1070222F0070CFCE8FE
:104C40000223E14603F000485FEA080C02D00FF2AD
:104C5000702C0DE05FEA045C02D50FF2682C07E0CF
:104C60005FEAC47C02D00FF2602C01E0AFF2700C5E
:104C70004FF0FF3823F00043CDF850C065280CD02A
:104C800006DC452809D046281DD047283DD13DE007
:104C9000662818D067287ED138E00021112F01DB6B
:104CA000112000E0781CCDE9000106A90EA8FFF74D
:104CB000E5FCDDE90F010E9A03910021009207F156
:104CC000010A04914DE04FF000400097CDE901103A
:104CD00006A90EA8FFF7D2FCDDE90F0203920E9B96
:104CE00011990022DDF80CA00093049211B9791CEF
:104CF00000EB010AB7EB0A0004D4C0F1FF3007F162
:104D0000010A0490AAEB0700019044E0012F00DAA9
:104D100001270021112F01DD112000E03846CDE9E7
:104D2000000106A90EA8FFF7A9FCDDE90F010E9A04
:104D30000391002104910092BA4621070CD40399F3
:104D4000514500DA8A46BAF1010F05DD009AAAF151
:104D50000101515C302908D0B84202DA10F1040F89
:104D600006DA0121CDE9011015E0AAF10101E9E718
:104D7000002805DC049901440491AAEB000102E03B
:104D8000411C514500DD8A460499401A401C01909F
:104D90004FF000400290200704D40198504501DBF9
:104DA000CDF8048000208DF84F0002980DF14F07D8
:104DB000B0F1004F25D02B200E9002984FF0020842
:104DC00000280CDA404202902D200E9007E00A21C4
:104DD0000298FBF7E5FD3031029007F8011DB8F1AC
:104DE0000001A8F10108F2DC02980028EFD1791E39
:104DF0000E980870307800F0200040F0450007F869
:104E0000020D12A8C01B00F107081498007800B129
:104E1000012000EB0A01019801EBE0710598414483
:104E2000401A401E0590E00306D45B462146179ABF
:104E3000059800F05DF805441498007818B15A46BA
:104E4000179990476D1CE00324D55B462146179ABD
:104E5000059800F04DF805441CE00498002807DB95
:104E6000DDE90301884203DD0098405C179901E009
:104E7000179930205A469047049805F10105401CC7
:104E800004900198401E019004D12E205A46179993
:104E900090476D1CBAF10001AAF1010ADDDC05E0C2
:104EA00017F8010B5A46179990476D1CB8F100018D
:104EB000A8F10108F4DC5B462146179A0598ABE699
:104EC0002D0000002B000000200000002DE9F04123
:104ED000044600251E461746880404D405E03946DA
:104EE0002020B0476D1C641EF9D52846BDE8F0812E
:104EF0002DE9F041044600251E469046C80301D521
:104F0000302700E02027880404D505E041463846D4
:104F1000B0476D1C641EF9D52846BDE8F0810A68CB
:104F2000531C0B601070704710B530B1036823B18B
:104F3000D0E90121914201D204E0002010BD491CBA
:104F4000816020B1914202D25C5C202CF7D9914261
:104F5000F4D1491E816010BD70B504460F4E19E0B2
:104F6000A0892568C0050AD4A06820B1FFF7F4FF26
:104F7000A089C00503D4206908B171688847A08959
:104F8000800503D4206A08B171688847716820469B
:104F900088472C46002CE3D170BD0000380000206B
:104FA0000248D0E90010084470470000300000209B
:104FB000002200F0F5B810B50168282088470400E9
:104FC00002D02821FBF7FFF8204610BD0022114631
:104FD00000F06EB82DE9F04788B00F4604469A46B7
:104FE00016461C216846FBF7EEF82F480025002CDA
:104FF0000560456055D08146E7B3CDE9004702958D
:10500000D9E90212D9F810000491CDE9052009F17F
:105010000800FFF7D0FF5FEA00082BD000986F462A
:1050200008B1029808B100270BE00198042808D9BC
:1050300003221EA10098FBF716F910B90298C01CB4
:1050400002903846FFF770FF0146404600F02AFC08
:1050500068B1BAF1000F13D06846FFF765FFDDE9CC
:105060000101814203D202990098405C40B1404660
:10507000FFF772FFDDE9011088420AD205460BE016
:105080001EB10299009808443060404608B0BDE85F
:10509000F087080000D0451E0EB160193060C9E9E4
:1050A00000450020F2E7000030000020EFBBBF0009
:1050B00070B515460E46040009D0FBF7ABF8411C4D
:1050C0002B4632462046BDE87040FFF783BF0020E4
:1050D00070BD000030B5A1B0054600F0A5FC174931
:1050E000284600F09DFD164C16A16846E378A2788C
:1050F000FFF736FA6B460F220121284600F02CFDFF
:105100006378227814A16846FFF72AFA6B461922C1
:105110000121284600F020FD154816A102886846A6
:10512000FFF71EFA6B4623220121284600F014FDEA
:10513000284600F05EFD21B030BD00007C6900080B
:105140000600002074656D70747572653A202564E0
:105150002E256420C2B0430068756D696469747956
:105160003A2025642E2564202525524800000000A1
:1051700004000020696C6C756D696E6174696F6EF6
:105180003A202564206C780013B54FF48053012237
:1051900069460248FDF7A8FC00981CBDAC0200203F
:1051A0002DE9F0418846A8B3B8F1000F33D08468E8
:1051B0000AB90AE024686CB3216A59B34046FBF788
:1051C00030F80028F6D120E024681CB3266A5FEA94
:1051D0000805F9D0002EF7D0B54218D002E098B1FA
:1051E0006D1C761C2878FAF7CFFF07463078FAF75F
:1051F000CBFF87422878F2D0FAF7C6FF0546307811
:10520000FAF7C2FF8542DFD124B1206A10B12046EF
:10521000BDE8F081FFE70020FAE700002DE9F0414A
:105220000B3020F00706104D19E02068B04215D36E
:10523000B0420AD9871B201DD4F80480FAF7AAFFD0
:10524000A019C0E90078286004E060682860201D8B
:10525000FAF7A0FF201D2660BDE8F081251D2C680F
:10526000002CE2D10020F7E748000020AAB04F4808
:1052700000682890FCF7B2FDFEF7ACFFFEF72CFBB0
:10528000FEF710FCFEF72AFCFEF7C8FBFEF7A6FBB4
:10529000FEF7E6FBFEF782FB454B464A464903A86C
:1052A00000F006FD03A801F050F8002103A801F06A
:1052B0005CF803A800F058FC03A800F0B5FB3F49D8
:1052C00003A800F0ADFC3EA31E220A2103A800F0B3
:1052D00043FC03A800F08DFC03A800F06BFC002841
:1052E000EAD1FBF7BDFDFEF7DDFBFEF7F7FB37A0CC
:1052F000FFF726F9FBF7B8FE4FF4FA7402E02046F8
:10530000FCF756F9FEF714FC0028F8D13449801E4A
:10531000096808613248FDF71DF9012128A8FEF748
:1053200021FF304C4FF47A652E48801DFBF70AFEB2
:1053300010B12DA0FFF704F9FCF74AF8A0806088AF
:10534000401C80B26080A8421DD32BA0FFF7F8F864
:1053500038A0FFF7F5F837A0FFF7F2F82148A38847
:10536000801D017842788DE80E00C378827835A1DF
:105370004048FFF7F5F83F493FA0FEF7CFFCFBF7A9
:1053800045FE002060800A20FBF74EFE08B1FEF7C4
:1053900035FD03A800F0E8FB03A8FFF79BFE03A878
:1053A00000F008FC0028F7D1BEE7000060690008A3
:1053B00045670008016400084C7100087C6900081A
:1053C0004C6F6164696E672E2E2E00004861726416
:1053D0007761726520696E6974204F4B0D0A000079
:1053E00064020020000000204448543131B6C1C896
:1053F000A1CAA7B0DC2100000D0A3D3D3D3D3D3D69
:105400003D3D2073746D3332436C69656E745F503B
:1054100075626C6973683A20203C7063546F7069E0
:10542000633E203D3D3D3D3D3D3D3D3D3D3D0D0A05
:10543000000000007C7C090909090909097C7C0D30
:105440000A0000007B2274656D70223A25642E25C7
:10545000642C202268756D69223A25642E25642CFF
:105460002022696C6C756D696E6174696F6E223A89
:1054700025647D00740000207063546F70696300C0
:105480002DE9F04107460025C8680C462E46B0F5C8
:105490007A7F5BD2401CE0602168A068095C5B29D0
:1054A00054D1401CA0602046FFF73EFD4CB1D4E92A
:1054B0000110884203D22268125C5D2A33D08842F0
:1054C00003D3A068401EA06040E0401E04F1100815
:1054D000A0604046FFF76FFD98B30DB330604660A3
:1054E0000646A068401CA0602046FFF71DFD21462F
:1054F000304600F0D7F930B32046FFF715FD14B35E
:10550000D4E90110884203D22168095C2C29E0D03B
:105510006268904217D22168085C5D2813D102E0CE
:1055200005462E46DDE7E068401EE06005B16E608E
:105530002020C7E90250A068401CA0600120BDE8FF
:10554000F081FFE715B12846FFF706FD0020F6E7DA
:10555000034610B500200246995CA1F13004092CE5
:1055600001D830380AE0A1F14104052C01D83738C0
:1055700004E0A1F16104052C08D857380844032A37
:1055800000D20001521C042AE6D310BD002010BD39
:105590002DE9F04192B04FF0000506460C004FF0A7
:1055A0002E03284610953CD02168D1B36A4627E0E7
:1055B00027683944415C34291BD00ADCA1F12B0750
:1055C000092F23D2DFE807F015221517221515152C
:1055D000150038290DD006DC35290AD0362908D027
:1055E000372913D105E0392903D0452901D0652990
:1055F0000CD1115400E01354401C3F2806D22CB1AA
:10560000A168D4F804C00F186745D1D3155490464B
:1056100010A9104600F0FAF90F4610990546884582
:1056200003D1002012B0BDE8F081C6E90657114A47
:10563000114B28463946FBF79BF902D86FF0004022
:105640000DE000220D4B28463946FBF779F902D8C8
:105650004FF0004003E028463946FBF751F97061EE
:105660000820F060109AA168A2EB08000844A0602E
:105670000120D7E70000C0FFFFFFDF410000E0C1CD
:105680002DE9F04107460026C8680C463546B0F5BE
:105690007A7F78D2401CE060002C74D0D4E90110ED
:1056A000884270D22168095C7B296CD1401CA060C3
:1056B0002046FFF739FCD4E90110884203D2226862
:1056C000125C7D2A4CD08842A0F10100A0605AD221
:1056D00004F110084046FFF76EFCE8B3F6B128600D
:1056E00045600546A068401CA0602046FFF71CFCF2
:1056F0002146284600F04AF878B32046FFF714FC0C
:1057000028692862002028613CB3D4E9011088424E
:1057100036D22168095C3A2932D102E00646354684
:10572000E0E7401CA0602046FFF7FEFB214628462C
:1057300000F0B8F888B12046FFF7F6FBD4E9011075
:10574000884203D22168095C2C29C3D06268904248
:1057500016D22168085C01E011E011E07D280FD12C
:10576000E068401EE06006B175604020C7E9026055
:10577000A068401CA0600120BDE8F08103E016B1E4
:105780003046FFF7E9FB0020F6E700002DE9F8437B
:1057900080460E46086889684FF000094318CDF826
:1057A0000090415C5D1C5C1C222975D1002271684F
:1057B00009E000BFBCF15C0F04D17F1C8F426BD2AB
:1057C000521C641C641C271A8F4204D294F800C037
:1057D000BCF1220FEED1201A88425DD22078222817
:1057E0005AD1E01A801A3169401C8847070053D00B
:1057F00000973DE029785C2905D000986D1C00F8E1
:10580000011B009034E00221601B012840DB687816
:10581000662814D008DC22281DD02F281BD05C2835
:1058200019D0622834D108E06E280ED072280ED02C
:1058300074280ED075282BD112E0082200E00C222B
:10584000009800F8012B009011E00A22F8E70D22E1
:10585000F6E70922F4E7009A02F8010B009206E04D
:105860006A462146284601F011F8010010D00D4487
:10587000A542BFD3009981F800901021C8E9031711
:105880003068201A401CB0600120BDE8F88303E0B6
:1058900017B171693846884715B13068281AB06069
:1058A0000020F2E770B50C0005465ED020680028A5
:1058B0005BD0A16863680A1D9A4205D80844042297
:1058C00031A1FAF7D0FC78B3A0686268411D0126C7
:1058D000914206D82168052208442DA1FAF7C3FC9D
:1058E00028B3A0686268011D914206D8216804228D
:1058F000084429A1FAF7B7FCE8B1D4E901018142D3
:1059000003D22268525C222A1DD0814221D2226811
:10591000525C2D2A02D0303A092A1AD8214628464C
:10592000BDE87040FFF734BE0420E86006E0EE609A
:10593000A068401D04E002206E61E860A068001DC0
:10594000A060012070BD21462846BDE87040FFF7E9
:105950001DBF814203D22268525C5B2A07D081427C
:1059600003D22068405C7B2807D0002070BD214610
:105970002846BDE87040FFF783BD21462846BDE8B4
:105980007040FFF77DBE00006E756C6C000000007B
:1059900066616C736500000074727565000000003C
:1059A0002DE9F04704008A4616D054F8047CD4F858
:1059B00000903E1F564500D956462046FEF7F8FD9A
:1059C00005468846324621465046FFF727FC40B13F
:1059D000C0F80090BDE8F087BDE8F0470846FEF744
:1059E00015BE44E9017955B129686A18211F8A4218
:1059F00002D9611B091F2960C5F80480EAE7024A41
:105A0000C2F80080E6E700004800002000B583B03F
:105A10000A460021CDE9001101466846FBF763F80C
:105A2000DDE9000103B000BD01680A7C90F8381080
:105A3000406B5143C900FAF7C6BB2DE9F04104465B
:105A400090F870001F4615460E4630B1012809D067
:105A500002280CD0032815D10FE0E16D20468847BD
:105A6000284408E0E16D20468847301A09E0E16DDE
:105A700020468847281A85B204E0E16D2046884711
:105A8000304486B22846A4F86460A4F8660039461B
:105A90000025204600F002FB010003D0204600F064
:105AA0002DFA85B22846BDE8F08100003FB581B0EF
:105AB000044690F88C00089900283AD0BDF81000F0
:105AC000002836D0012811D9022902D0032907D095
:105AD0000CE0BDF80820101A401CADF8080005E0E5
